:10000000FDC0000012C1000010C100000EC10000C0
:100010000CC100000AC1000008C1000006C10000B8
:1000200004C1000002C1000000C10000FEC00000C9
:10003000FCC00000FAC00000F8C00000F6C00000DC
:10004000F4C00000F2C00000F0C00000EEC00000EC
:10005000ECC00000EAC00000E8C00000E6C00000FC
:10006000E4C00000E2C00000E0C00000DEC000000C
:10007000DCC00000DAC00000D8C00000D6C000001C
:10008000D4C00000D2C00000D0C00000CEC000002C
:10009000CCC00000CAC00000C8C00000C6C000003C
:1000A000C4C00000C2C00000C0C00000BEC000004C
:1000B000BCC00000BAC00000B8C00000B6C000005C
:1000C000B4C00000B2C00000B0C00000AEC000006C
:1000D000ACC00000AAC00000A8C00000A6C000007C
:1000E000A4C00000A2C00000A0C000009EC000008C
:1000F0009CC000009AC0000098C0000096C000009C
:1001000094C0000092C0000090C000008EC00000AB
:100110008CC000008AC0000088C0000086C00000BB
:1001200084C0000082C0000080C000007EC00000CB
:100130007CC000007AC0000078C0000076C00000DB
:1001400074C0000072C0000070C000006EC00000EB
:100150006CC000006AC0000068C0000066C00000FB
:1001600064C0000062C0000060C000005EC000000B
:100170005CC000005AC0000058C0000056C000001B
:1001800054C0000052C0000050C000004EC000002B
:100190004CC000004AC0000048C0000046C000003B
:1001A00044C0000042C0000040C000003EC000004B
:1001B0003CC000003AC0000038C0000036C000005B
:1001C00034C0000032C0000030C000002EC000006B
:1001D0002CC000002AC0000028C0000026C000007B
:1001E00024C0000022C0000020C000001EC000008B
:1001F0001CC000001AC0000018C0000011241FBE5F
:10020000CFEFCDBFDFE5DEBF00E00CBF10E2A0E026
:10021000B0E2E6E2F4E000E00BBF02C007900D920E
:10022000AA31B107D9F7E0D0FCC0EACECF93DF9373
:10023000CDB7DEB76297CDBFDEBF26E0E8E0F0E2E3
:10024000DE01119601900D922A95E1F726E0EEE08D
:10025000F0E2DE01179601900D922A95E1F726E073
:10026000E4E1F0E2DE011D9601900D922A95E1F79E
:10027000FC01EE0FFF1FEE5FFF4D20813181213029
:10028000310579F49C01220F331FFE01E20FF31FA9
:100290000180F281E02D1082F901EE5FFF4D1082A6
:1002A0001182880F991FE1E0F0E0EC0FFD1FE80FCD
:1002B000F91FA681B7812C918485958530E028238C
:1002C000392381E090E0232B11F080E090E06296EA
:1002D000CDBFDEBFDF91CF910895209100203091F6
:1002E00001202130310549F42FEF2093E0072093BE
:1002F000E7071092002010920120009719F0019753
:1003000029F0089581E08093E707089582E08093C3
:10031000E707089527E0FC012083E1622FEF2083A7
:10032000FC01E66023E02083FC01EC6021E02083F7
:100330000895CF93C82F80E098E0ECDFC095C0937C
:100340002008ECE0F8E0808180FFFDCFCF91089598
:100350000F931F93CF93DF93009751F08C01C0E070
:10036000D0E08FEF90E0E5DF2196C017D107C9F705
:10037000DF91CF911F910F910895CF92DF92EF926D
:10038000FF920F931F93CF93DF936C017B018A0140
:10039000C2E0D0E0F60180819181019731F0F70150
:1003A00080819181019769F408C080E090E095DF39
:1003B000F70180819181019751F481E090E08DDF18
:1003C00006C080E090E089DF81E090E086DFC80130
:1003D000BFDF2197F9F6DF91CF911F910F91FF9029
:1003E000EF90DF90CF900895CF93DF9300D01F92CE
:1003F000CDB7DEB71B821C8219821A8281E090E0A1
:1004000015DF8B839C8382E090E010DF89839A83E1
:1004100046E050E0BE016F5F7F4FCE010396ADDF37
:06042000E9CFF894FFCFC4
:1004260001000100010001008006A006A006880662
:0A043600A806A8061000020004004A
:00000001FF
