S01A00006C65645377697463685754696D65724953522E737265631D
S1130000FDC000001CC100001AC1000018C100009E
S113001016C1000014C1000012C1000010C100008C
S11300200EC100000CC100000AC1000008C100009C
S113003006C1000004C1000029C1000054C1000031
S11300407FC10000AAC10000D5C1000000C20000A9
S11300502BC2000056C2000081C20000ACC20000E6
S1130060EEC00000ECC00000EAC00000E8C00000E0
S1130070E6C00000E4C00000E2C00000E0C00000F0
S1130080DEC00000DCC00000DAC00000D8C0000000
S1130090D6C00000D4C00000D2C00000D0C0000010
S11300A0CEC00000CCC00000CAC00000C8C0000020
S11300B0C6C00000C4C00000C2C000006BC4000081
S11300C096C40000C1C40000ECC4000017C50000C1
S11300D042C500006DC5000098C50000C3C50000FE
S11300E0EEC50000ACC00000AAC00000A8C000001B
S11300F0A6C00000A4C00000A2C00000A0C0000070
S11301009EC000009CC000009AC0000098C000007F
S113011096C0000094C0000092C0000090C000008F
S11301208EC000008CC000008AC0000088C000009F
S113013086C000006DC2000098C20000C3C2000067
S1130140EEC2000019C3000044C300006FC30000E6
S11301509AC30000C5C30000F0C3000070C00000D3
S11301606EC000006CC000006AC0000068C00000DF
S113017066C0000064C0000062C0000060C00000EF
S11301805EC000005CC000005AC0000058C00000FF
S113019056C0000054C0000052C0000050C000000F
S11301A04EC000004CC000004AC0000048C000001F
S11301B0B3C50000DEC5000009C6000034C6000057
S11301C05FC600008AC600003AC0000038C00000C4
S11301D036C0000034C0000032C0000030C000004F
S11301E02EC000002CC000002AC0000028C000005F
S11301F026C0000024C0000022C0000011241FBE3D
S1130200CFEFCDBFDFE5DEBF00E00CBF10E2A0E022
S1130210B0E2E0EAF2E100E00BBF02C007900D9209
S1130220AA31B107D9F720E2AAE1B0E201C01D92D8
S1130230AA36B207E1F70E942C090C944E09E0CECD
S11302408FEF80937000809371008093720080938D
S113025073008093740080937500809376000895F2
S1130260CF93DF931F92CDB7DEB79FB79983F894EE
S11302709981E82FF0E0E059FF4F60958081682371
S113028060839FBF0F90DF91CF9108951F920F92CB
S11302900FB60F9211240BB60F922F933F934F93E7
S11302A05F936F937F938F939F93AF93BF93EF93DA
S11302B0FF93E0916020F0916120309709F0199547
S11302C0FF91EF91BF91AF919F918F917F916F912A
S11302D05F914F913F912F910F900BBE0F900FBEE6
S11302E00F901F9018951F920F920FB60F92112422
S11302F00BB60F922F933F934F935F936F937F931C
S11303008F939F93AF93BF93EF93FF93E0915E20FE
S1130310F0915F20309709F01995FF91EF91BF910B
S1130320AF919F918F917F916F915F914F913F9189
S11303302F910F900BBE0F900FBE0F901F9018952A
S11303401F920F920FB60F9211240BB60F922F9398
S11303503F934F935F936F937F938F939F93AF9349
S1130360BF93EF93FF93E0915C20F0915D20309771
S113037009F01995FF91EF91BF91AF919F918F91E2
S11303807F916F915F914F913F912F910F900BBE91
S11303900F900FBE0F901F9018951F920F920FB6DB
S11303A00F9211240BB60F922F933F934F935F93A9
S11303B06F937F938F939F93AF93BF93EF93FF9329
S11303C0E0915A20F0915B20309709F01995FF9144
S11303D0EF91BF91AF919F918F917F916F915F91B9
S11303E04F913F912F910F900BBE0F900FBE0F9026
S11303F01F9018951F920F920FB60F9211240BB6EF
S11304000F922F933F934F935F936F937F938F93A9
S11304109F93AF93BF93EF93FF93E0915820F09194
S11304205920309709F01995FF91EF91BF91AF9141
S11304309F918F917F916F915F914F913F912F91F8
S11304400F900BBE0F900FBE0F901F9018951F9228
S11304500F920FB60F9211240BB60F922F933F9366
S11304604F935F936F937F938F939F93AF93BF93B8
S1130470EF93FF93E0915620F0915720309709F0C5
S11304801995FF91EF91BF91AF919F918F917F91BA
S11304906F915F914F913F912F910F900BBE0F90F1
S11304A00FBE0F901F9018951F920F920FB60F92C8
S11304B011240BB60F922F933F934F935F936F9337
S11304C07F938F939F93AF93BF93EF93FF93E091A9
S11304D05420F0915520309709F01995FF91EF9130
S11304E0BF91AF919F918F917F916F915F914F9148
S11304F03F912F910F900BBE0F900FBE0F901F9046
S113050018951F920F920FB60F9211240BB60F92EB
S11305102F933F934F935F936F937F938F939F9307
S1130520AF93BF93EF93FF93E0915220F091532048
S1130530309709F01995FF91EF91BF91AF919F9179
S11305408F917F916F915F914F913F912F910F9078
S11305500BBE0F900FBE0F901F9018951F920F9215
S11305600FB60F9211240BB60F922F933F934F9314
S11305705F936F937F938F939F93AF93BF93EF9307
S1130580FF93E0915020F0915120309709F0199594
S1130590FF91EF91BF91AF919F918F917F916F9157
S11305A05F914F913F912F910F900BBE0F900FBE13
S11305B00F901F9018951F920F920FB60F9211244F
S11305C00BB60F922F933F934F935F936F937F9349
S11305D08F939F93AF93BF93EF93FF93E0914E203C
S11305E0F0914F20309709F01995FF91EF91BF9149
S11305F0AF919F918F917F916F915F914F913F91B7
S11306002F910F900BBE0F900FBE0F901F90189557
S11306101F920F920FB60F9211240BB60F922F93C5
S11306203F934F935F936F937F938F939F93AF9376
S1130630BF93EF93FF93E0914C20F0914D203097BE
S113064009F01995FF91EF91BF91AF919F918F910F
S11306507F916F915F914F913F912F910F900BBEBE
S11306600F900FBE0F901F9018951F920F920FB608
S11306700F9211240BB60F922F933F934F935F93D6
S11306806F937F938F939F93AF93BF93EF93FF9356
S1130690E0914A20F0914B20309709F01995FF9191
S11306A0EF91BF91AF919F918F917F916F915F91E6
S11306B04F913F912F910F900BBE0F900FBE0F9053
S11306C01F9018951F920F920FB60F9211240BB61C
S11306D00F922F933F934F935F936F937F938F93D7
S11306E09F93AF93BF93EF93FF93E0914820F091D2
S11306F04920309709F01995FF91EF91BF91AF917F
S11307009F918F917F916F915F914F913F912F9125
S11307100F900BBE0F900FBE0F901F9018951F9255
S11307200F920FB60F9211240BB60F922F933F9393
S11307304F935F936F937F938F939F93AF93BF93E5
S1130740EF93FF93E0914620F0914720309709F012
S11307501995FF91EF91BF91AF919F918F917F91E7
S11307606F915F914F913F912F910F900BBE0F901E
S11307700FBE0F901F9018951F920F920FB60F92F5
S113078011240BB60F922F933F934F935F936F9364
S11307907F938F939F93AF93BF93EF93FF93E091D6
S11307A04420F0914520309709F01995FF91EF917D
S11307B0BF91AF919F918F917F916F915F914F9175
S11307C03F912F910F900BBE0F900FBE0F901F9073
S11307D018951F920F920FB60F9211240BB60F9219
S11307E02F933F934F935F936F937F938F939F9335
S11307F0AF93BF93EF93FF93E0914220F091432096
S1130800309709F01995FF91EF91BF91AF919F91A6
S11308108F917F916F915F914F913F912F910F90A5
S11308200BBE0F900FBE0F901F9018951F920F9242
S11308300FB60F9211240BB60F922F933F934F9341
S11308405F936F937F938F939F93AF93BF93EF9334
S1130850FF93E0914020F0914120309709F01995E1
S1130860FF91EF91BF91AF919F918F917F916F9184
S11308705F914F913F912F910F900BBE0F900FBE40
S11308800F901F9018951F920F920FB60F9211247C
S11308900BB60F922F933F934F935F936F937F9376
S11308A08F939F93AF93BF93EF93FF93E0913E2079
S11308B0F0913F20309709F01995FF91EF91BF9186
S11308C0AF919F918F917F916F915F914F913F91E4
S11308D02F910F900BBE0F900FBE0F901F90189585
S11308E01F920F920FB60F9211240BB60F922F93F3
S11308F03F934F935F936F937F938F939F93AF93A4
S1130900BF93EF93FF93E0913C20F0913D2030970B
S113091009F01995FF91EF91BF91AF919F918F913C
S11309207F916F915F914F913F912F910F900BBEEB
S11309300F900FBE0F901F9018951F920F920FB635
S11309400F9211240BB60F922F933F934F935F9303
S11309506F937F938F939F93AF93BF93EF93FF9383
S1130960E0913A20F0913B20309709F01995FF91DE
S1130970EF91BF91AF919F918F917F916F915F9113
S11309804F913F912F910F900BBE0F900FBE0F9080
S11309901F9018951F920F920FB60F9211240BB649
S11309A00F922F933F934F935F936F937F938F9304
S11309B09F93AF93BF93EF93FF93E0913820F0910F
S11309C03920309709F01995FF91EF91BF91AF91BC
S11309D09F918F917F916F915F914F913F912F9153
S11309E00F900BBE0F900FBE0F901F9018951F9283
S11309F00F920FB60F9211240BB60F922F933F93C1
S1130A004F935F936F937F938F939F93AF93BF9312
S1130A10EF93FF93E0913620F0913720309709F05F
S1130A201995FF91EF91BF91AF919F918F917F9114
S1130A306F915F914F913F912F910F900BBE0F904B
S1130A400FBE0F901F9018951F920F920FB60F9222
S1130A5011240BB60F922F933F934F935F936F9391
S1130A607F938F939F93AF93BF93EF93FF93E09103
S1130A703420F0913520309709F01995FF91EF91CA
S1130A80BF91AF919F918F917F916F915F914F91A2
S1130A903F912F910F900BBE0F900FBE0F901F90A0
S1130AA018951F920F920FB60F9211240BB60F9246
S1130AB02F933F934F935F936F937F938F939F9362
S1130AC0AF93BF93EF93FF93E0913220F0913320E3
S1130AD0309709F01995FF91EF91BF91AF919F91D4
S1130AE08F917F916F915F914F913F912F910F90D3
S1130AF00BBE0F900FBE0F901F9018951F920F9270
S1130B000FB60F9211240BB60F922F933F934F936E
S1130B105F936F937F938F939F93AF93BF93EF9361
S1130B20FF93E0913020F0913120309709F019952E
S1130B30FF91EF91BF91AF919F918F917F916F91B1
S1130B405F914F913F912F910F900BBE0F900FBE6D
S1130B500F901F9018951F920F920FB60F921124A9
S1130B600BB60F922F933F934F935F936F937F93A3
S1130B708F939F93AF93BF93EF93FF93E0912E20B6
S1130B80F0912F20309709F01995FF91EF91BF91C3
S1130B90AF919F918F917F916F915F914F913F9111
S1130BA02F910F900BBE0F900FBE0F901F901895B2
S1130BB01F920F920FB60F9211240BB60F922F9320
S1130BC03F934F935F936F937F938F939F93AF93D1
S1130BD0BF93EF93FF93E0912C20F0912D20309759
S1130BE009F01995FF91EF91BF91AF919F918F916A
S1130BF07F916F915F914F913F912F910F900BBE19
S1130C000F900FBE0F901F9018951F920F920FB662
S1130C100F9211240BB60F922F933F934F935F9330
S1130C206F937F938F939F93AF93BF93EF93FF93B0
S1130C30E0912A20F0912B20309709F01995FF912B
S1130C40EF91BF91AF919F918F917F916F915F9140
S1130C504F913F912F910F900BBE0F900FBE0F90AD
S1130C601F9018951F920F920FB60F9211240BB676
S1130C700F922F933F934F935F936F937F938F9331
S1130C809F93AF93BF93EF93FF93E0912820F0914C
S1130C902920309709F01995FF91EF91BF91AF91F9
S1130CA09F918F917F916F915F914F913F912F9180
S1130CB00F900BBE0F900FBE0F901F9018951F92B0
S1130CC00F920FB60F9211240BB60F922F933F93EE
S1130CD04F935F936F937F938F939F93AF93BF9340
S1130CE0EF93FF93E0912620F0912720309709F0AD
S1130CF01995FF91EF91BF91AF919F918F917F9142
S1130D006F915F914F913F912F910F900BBE0F9078
S1130D100FBE0F901F9018951F920F920FB60F924F
S1130D2011240BB60F922F933F934F935F936F93BE
S1130D307F938F939F93AF93BF93EF93FF93E09130
S1130D402420F0912520309709F01995FF91EF9117
S1130D50BF91AF919F918F917F916F915F914F91CF
S1130D603F912F910F900BBE0F900FBE0F901F90CD
S1130D7018951F920F920FB60F9211240BB60F9273
S1130D802F933F934F935F936F937F938F939F938F
S1130D90AF93BF93EF93FF93E0912220F091232030
S1130DA0309709F01995FF91EF91BF91AF919F9101
S1130DB08F917F916F915F914F913F912F910F9000
S1130DC00BBE0F900FBE0F901F9018951F920F929D
S1130DD00FB60F9211240BB60F922F933F934F939C
S1130DE05F936F937F938F939F93AF93BF93EF938F
S1130DF0FF93E0912020F0912120309709F019957C
S1130E00FF91EF91BF91AF919F918F917F916F91DE
S1130E105F914F913F912F910F900BBE0F900FBE9A
S1130E200F901F9018951F920F920FB60F921124D6
S1130E300BB60F922F933F934F935F936F937F93D0
S1130E408F939F93AF93BF93EF93FF93E0911E20F3
S1130E50F0911F20309709F01995FF91EF91BF9100
S1130E60AF919F918F917F916F915F914F913F913E
S1130E702F910F900BBE0F900FBE0F901F901895DF
S1130E801F920F920FB60F9211240BB60F922F934D
S1130E903F934F935F936F937F938F939F93AF93FE
S1130EA0BF93EF93FF93E0911C20F0911D203097A6
S1130EB009F01995FF91EF91BF91AF919F918F9197
S1130EC07F916F915F914F913F912F910F900BBE46
S1130ED00F900FBE0F901F9018951F920F920FB690
S1130EE00F9211240BB60F922F933F934F935F935E
S1130EF06F937F938F939F93AF93BF93EF93FF93DE
S1130F00E0911A20F0911B20309709F01995FF9178
S1130F10EF91BF91AF919F918F917F916F915F916D
S1130F204F913F912F910F900BBE0F900FBE0F90DA
S1130F301F9018951F93CF93DF931F921F92CDB7E5
S1130F40DEB72FB72A83F8941A81282F392F211559
S1130F5088E0380739F461E083E082D964E083E013
S1130F607FD943C0203488E0380739F462E083E055
S1130F7077D964E083E074D938C0211589E0380753
S1130F8039F461E084E06CD964E084E069D92DC06F
S1130F90203489E0380739F462E084E061D964E000
S1130FA084E05ED922C021158AE0380739F461E073
S1130FB085E056D964E085E053D917C020348AE02F
S1130FC0380739F462E085E04BD964E085E048D91C
S1130FD00CC021153B4039F461E086E041D964E05E
S1130FE086E03ED902C01FBF10C0809165208F3FAC
S1130FF009F4FFCF8FB78983F8949981E4E6F0E28E
S113100081818F5F81839FBF1FBF0F900F90DF91FE
S1131010CF911F910895811528E0920729F46093D8
S11310206020709361200895803428E0920729F4A9
S113103060935420709355200895811529E09207F8
S113104029F460934C2070934D200895803429E056
S1131050920729F4609340207093412008958115EC
S11310602AE0920729F46093382070933920089578
S113107080342AE0920729F460932C2070932D2069
S1131080089581159B4021F46093242070932520BA
S1131090089581E090E08093622090936320E0E0E3
S11310A0F8E08485816084870895CF93DF93CDB77A
S11310B0DEB76297CDBFDEBF26E0E8E0F0E2DE01F6
S11310C0119601900D922A95E1F726E0EEE0F0E208
S11310D0DE01179601900D922A95E1F726E0E4E1EE
S11310E0F0E2DE011D9601900D922A95E1F7FC01D4
S11310F0EE0FFF1FEE5FFF4D20813181213031055E
S113110079F49C01220F331FFE01E20FF31F0180CB
S1131110F281E02D1082F901EE5FFF4D1082118201
S1131120880F991FE1E0F0E0EC0FFD1FE80FF91FB5
S1131130A681B7812C918485958530E028233923B5
S113114081E090E0232B11F080E090E06296CDBF27
S1131150DEBFDF91CF9108952091002030910120CE
S11311602130310549F42FEF2093E0072093E7075E
S11311701092002010920120009719F0019729F095
S1131180089581E08093E707089582E08093E7075C
S11311900895CF93DF93EC0180E098E0CBDE69E41F
S11311A078E080E098E037DFE0E0F8E08181887F54
S11311B08183C6A3D7A386818C7F86838681816041
S11311C0868378948081807F87608083DF91CF914C
S11311D008951092622010926320DBDF80916220D8
S11311E090916320892BD1F30895CF92DF92EF92EF
S11311F0FF920F931F93CF93DF936C017B018A01BE
S1131200C2E0D0E0F60180819181019731F0F701CD
S113121080819181019769F408C080E090E09CDFAF
S1131220F70180819181019751F481E090E094DF8E
S113123006C080E090E090DF81E090E08DDFC8019F
S1131240C8DF2197F9F6DF91CF911F910F91FF909D
S1131250EF90DF90CF900895CF93DF9300D01F924B
S1131260CDB7DEB787E08093A2000E9420011B82E5
S11312701C8219821A8281E090E017DF8B839C83A1
S113128082E090E012DF89839A834CED55E0BE0141
S11312906F5F7F4FCE010396A8DFE9CFF894FFCFAD
S11312A001000100010001008006A006A0068806D6
S10D12B0A806A806100002000400BE
S9030000FC
