:100000000C94FA000C9418010C9418010C9418012B
:100010000C9418010C9418010C9418010C941801FC
:100020000C9418010C9418010C9418010C941801EC
:100030000C9418010C9418010C9418010C941801DC
:100040000C9418010C9418010C9418010C941801CC
:100050000C9418010C9418010C9418010C941801BC
:100060000C9418010C9418010C9418010C941801AC
:100070000C9418010C9418010C9418010C9418019C
:100080000C9418010C9418010C9418010C9418018C
:100090000C9418010C9418010C9418010C9418017C
:1000A0000C9418010C9418010C9418010C9418016C
:1000B0000C9418010C9418010C9418010C9418015C
:1000C0000C9418010C9418010C9418010C9418014C
:1000D0000C9418010C9418010C9418010C9418013C
:1000E0000C9418010C9418010C9418010C9418012C
:1000F0000C9418010C9418010C9418010C9418011C
:100100000C9418010C9418010C9418010C9418010B
:100110000C9418010C9418010C9418010C941801FB
:100120000C9418010C9418010C9418010C941801EB
:100130000C9418010C9418010C9418010C941801DB
:100140000C9418010C9418010C9418010C941801CB
:100150000C9418010C9418010C9418010C941801BB
:100160000C9418010C9418010C9418010C941801AB
:100170000C9418010C9418010C9418010C9418019B
:100180000C9418010C9418010C9418010C9418018B
:100190000C9418010C9418010C9418010C9418017B
:1001A0000C9418010C9418010C9418010C9418016B
:1001B0000C9418010C9418010C9418010C9418015B
:1001C0000C9418010C9418010C9418010C9418014B
:1001D0000C9418010C9418010C9418010C9418013B
:1001E0000C9418010C9418010C9418010C9418012B
:1001F0000C94180111241FBECFEFCDBFDFE3DEBF8B
:1002000000E00CBF18BE19BE1ABE1BBE10E2A0E073
:10021000B0E2E2EDF3E000E00BBF02C007900D9208
:10022000A230B107D9F71BBE0E9482010C94E701EE
:100230000C940000209100203091012021303105E4
:1002400049F42FEF2093E0072093E7071092002056
:1002500010920120009719F0019729F0089581E08C
:100260008093E707089582E08093E707089588E97F
:100270009BE2E7EEF7E020810197E9F708950F93FD
:100280001F93CF93DF93181619064CF48C01C0E02E
:10029000D0E00E94370121960C171D07D1F7DF919E
:1002A000CF911F910F9108950F931F93CF93DF93D9
:1002B0000097F9F08C01C0E0D0E080E090E00E946F
:1002C0001A0181E090E00E941A0181E090E00E9412
:1002D0003F0180E090E00E941A0181E090E00E94DE
:1002E0001A0181E090E00E943F012196C017D107DA
:1002F00021F785E090E00E943F01DF91CF911F91AF
:100300000F910895CF93DF93CDB7DEB7C05ED14094
:10031000CDBFDEBFE0EEF7E08FEF80838483E0E4C3
:10032000F6E088E0818384E08283E0EAF8E083E01D
:1003300085838CE086838481806184838481886066
:10034000848383E090E00E9454010AE010E090E092
:10035000E0EAF8E030C0A901A1E0B0E0AC0FBD1FB9
:10036000A20FB31F2C93818185FFFDCFA1E0B0E0E8
:10037000AC0FBD1FA40FB51F8C9180838181882392
:10038000ECF78081A1EFB0E0AC0FBD1FA40FB51F4B
:100390008C936C91A1E0B0E0AC0FBD1FA40FB51F12
:1003A0008C91681391E02F5F3F4F203F310599F604
:1003B0000150110919F020E030E0CDCFE0EEF7E078
:1003C0008FEF992311F08483FCCF1482FACFF89435
:0203D000FFCF5D
:0203D200010028
:00000001FF
