:100000000C94FA000C9418010C9418010C9418012B
:100010000C9418010C9418010C9418010C941801FC
:100020000C9418010C9418010C9418010C941801EC
:100030000C9418010C9418010C9418010C941801DC
:100040000C9418010C9418010C9418010C941801CC
:100050000C9418010C9418010C9418010C941801BC
:100060000C9418010C9418010C9418010C941801AC
:100070000C9418010C9418010C9418010C9418019C
:100080000C9418010C9418010C9418010C9418018C
:100090000C9418010C9418010C9418010C9418017C
:1000A0000C9418010C9418010C9418010C9418016C
:1000B0000C9418010C9418010C9418010C9418015C
:1000C0000C9418010C9418010C9418010C9418014C
:1000D0000C9418010C9418010C9418010C9418013C
:1000E0000C9418010C9418010C9418010C9418012C
:1000F0000C9418010C9418010C9418010C9418011C
:100100000C9418010C9418010C9418010C9418010B
:100110000C9418010C9418010C9418010C941801FB
:100120000C9418010C9418010C9418010C941801EB
:100130000C9418010C9418010C9418010C941801DB
:100140000C9418010C9418010C9418010C941801CB
:100150000C9418010C9418010C9418010C941801BB
:100160000C9418010C9418010C9418010C941801AB
:100170000C9418010C9418010C9418010C9418019B
:100180000C9418010C9418010C9418010C9418018B
:100190000C9418010C9418010C9418010C9418017B
:1001A0000C9418010C9418010C9418010C9418016B
:1001B0000C9418010C9418010C9418010C9418015B
:1001C0000C9418010C9418010C9418010C9418014B
:1001D0000C9418010C9418010C9418010C9418013B
:1001E0000C9418010C9418010C9418010C9418012B
:1001F0000C94180111241FBECFEFCDBFDFE3DEBF8B
:1002000000E00CBF18BE19BE1ABE1BBE10E2A0E073
:10021000B0E2E2E4F3E000E00BBF02C007900D9211
:10022000A032B107D9F71BBE0E941A010C949F019E
:100230000C940000CF93DF93CDB7DEB7C250D2400D
:10024000CDBFDEBFE0E4F6E088E0818384E0828316
:10025000E0EAF8E083E085838CE086838481806136
:10026000848384818860848382E1E0E0F0E2DE01BF
:10027000AF51BE4F01900D928A95E1F7CD50DE4F00
:1002800018821982C35FD1408AE0E4E1F0E2DE0126
:10029000AB50BE4F01900D928A95E1F780E290E25B
:1002A000C150DE4F88839983CF5FD14080E29CE7C5
:1002B000CF5FDD4F88839983C150D240E0EAF8E0F8
:1002C000DE01AF51BE4F9D012C5E3F4F8D9180836B
:1002D000818185FFFDCF2A173B07C1F781818823E4
:1002E000ECF78081CF50DF4F8883C15FD040DE01C3
:1002F000AB50BE4F9D01265F3F4F8D918083818122
:1003000085FFFDCF2A173B07C1F7CF50DF4F88810C
:10031000C15FD040898389818083818185FFFDCF42
:10032000DE01A150BE4F9D012C5F3F4F8D91808318
:10033000818185FFFDCFA217B307C1F7C1CFF89424
:02034000FFCFED
:100342007C456E74657220616E7920636861723AD1
:100352002000000052656365697665643A200000FA
:00000001FF
